:100000000C9456000C9473000C9473000C947300C1
:100010000C9473000C9473000C9473000C94730094
:100020000C9473000C9473000C9473000C94730084
:100030000C9473000C9473000C941E040C9428040C
:100040000C9452040C9473000C9473000C94730081
:100050000C9473000C9473000C94D0030C947403F0
:100060000C9473000C9440030C9473000C94730074
:100070000C9473000C9473000C9473000C94730034
:100080000C9473000C9473000C94A7000C947300F0
:100090000C9473000C9473000C9473000C94730014
:1000A0000C9473000C9473000C94730011241FBE05
:1000B000CFEFCDBFDFE2DEBF12E2A0E0B0E2EEE8BC
:1000C000F9E002C005900D92A43BB107D9F726E2F2
:1000D000A4EBB2E201C01D92A331B207E1F70E9486
:1000E00065020C94C5040C94000081E0E0E0F6E0A9
:1000F0008283E0E0F2E092E6918395E094A7148297
:1001000090819160908380A392E092A39FEA90A750
:1001100011A612A698E093A787A3808181608083AF
:100120006CE188E090E20E947A020895E0E0F2E05B
:1001300011A280E2A0E6B6E015968C9380818460DF
:10014000808308958093B4229093B52208951F92DE
:100150000F920FB60F9211242F933F934F935F93FB
:100160006F937F938F939F93AF93BF93EF93FF937F
:1001700080E2E0E6F6E08683E091B422F091B522D9
:10018000309739F0A0E0B2E050968D919C91519754
:100190000995FF91EF91BF91AF919F918F917F91C1
:1001A0006F915F914F913F912F910F900FBE0F90E4
:1001B0001F901895E0E6F6E080E2818380E4818379
:1001C00080E88183E0E5F0E0808184608083818144
:1001D00082FFFDCF88ED84BF82E08093400084E001
:1001E0008093500069E184E290E20E947A020E94CA
:1001F000C0020E947E030E9431010E9475008FB7E9
:1002000080688FBFE2EAF0E08081876080836EE1E2
:100210008DE390E20E947A02089582E0E0E4F6E045
:1002200085830895CF93DF931F92CDB7DEB769839F
:1002300092E0E0E4F6E09683882329F0813039F4F7
:1002400080E1858304C080E1E0E4F6E0868361E03C
:1002500070E0CE0101960E9491030F90DF91CF9143
:1002600008958DE091E00E94CB0381E0E0E4F6E0A8
:10027000868386E38A95F1F700C081E0858386E373
:100280008A95F1F700C061E280E00E94120160EE01
:1002900080E00E94120164E080E00E9412016BEC99
:1002A00080E00E94120160E280E00E9412016CE096
:1002B00080E00E94120160E28BE590E20E947A02E7
:1002C00008951F93CF93DF93C82FD42F605C80E0F5
:1002D0000E9412016D2F660F6D0F660F605880E04F
:1002E0000E94120183E393E00197F1F7D0E0A09719
:1002F000CE01880F991F880F991FC80FD91FC558A5
:10030000DF4D10E0699181E00E9412011F5F1530FE
:10031000C9F760E081E00E941201DF91CF911F9147
:1003200008950F931F93CF93DF93062FEC0110E0F6
:10033000899190EE980F903630F0412F602F80E237
:100340000E94610104C0412F602F0E9461011F5F64
:100350001E3071F7DF91CF911F910F9108952F9269
:100360003F924F925F926F927F928F929F92AF9245
:10037000BF92CF92DF92EF92FF920F931F93CF9392
:10038000DF9300D01F92CDB7DEB7562E4983222EC1
:100390006C01E12CF12CC114D104E104F10409F445
:1003A00040C0C701B6011B820F2EFAE08F2E912CA0
:1003B000A12CB12CF02DA50194010E946A04CA0160
:1003C000B9012B812F5F2B83611571058105910583
:1003D00091F7422E222331F131E03A830F2EFAE0D9
:1003E0008F2E912CA12CB12CF02D3980320EC7010B
:1003F000B601A50194010E946A04622E732E042F97
:10040000152F862F432D652D805D0E946101C62C1E
:10041000D72CE02EF12E8A818F5F8A83481638F719
:1004200001C01B82EB81E215B1F0822D90E07C01CE
:10043000EE1AF1081E141F0474F411E02981220E33
:10044000422D652D80E20E9461011F5F812F90E0A7
:10045000E816F906ACF72396CDBFDEBFDF91CF914A
:100460001F910F91FF90EF90DF90CF90BF90AF90D2
:100470009F908F907F906F905F904F903F902F90C4
:1004800008959C01A8EEB3E00E948C042FEF3FEF8B
:1004900040E050E00E946A042093B6223093B722D5
:1004A0002091B6223091B72240E050E06EE08BE51B
:1004B00092E20E94E4028091B6229091B72221E05C
:1004C00040E060E00E94AF0108950E94DA0081E4FC
:1004D00092E00E94A20062E08AE692E20E9491010C
:1004E00080E090E00196883E23E09207D9F70E94D1
:1004F0009600F6CF2091022030910320E9EBF3E241
:10050000E21BF30B462F50E04E175F07A4F566235E
:10051000C9F0A82FB92F522F432F9D91E52FF42F0B
:1005200091939E2F921B961718F45E2F4F2FF5CFA5
:100530006150862F90E00196280F391F20930220EA
:10054000309303208091002090910120895B92429A
:10055000B1F48091B822882391F08091B9228093E0
:10056000C008809100209091012001968093002086
:1005700090930120089580E8E0E6F6E085830895F1
:10058000E0E4F6E086858F7E868788E0818394E0CC
:100590009283E0ECF8E093E094839481977F9483D6
:1005A00096E1968390EB9783828383818C6083832B
:1005B00081818F7B81836FE189E792E20E947A02D9
:1005C00081E08093B82208956F927F928F929F92DC
:1005D000AF92BF92CF92DF92EF92FF920F931F9351
:1005E000CF93DF93CDB7DEB72A97CDBFDEBF8C01A7
:1005F000662E49015A012115310541055105B9F011
:10060000CA01B901712C0F2EFAE0CF2ED12CE12CAA
:10061000F12CF02DA70196010E946A04CA01B901CC
:1006200073942115310541055105A1F702C07724C6
:1006300073944AE0BE016F5F7F4FC4010E949B0428
:10064000662DC8010E947A02672DCE0101960E9494
:100650007A0262E08BE390E20E947A022A96CDBF92
:10066000DEBFDF91CF911F910F91FF90EF90DF9050
:10067000CF90BF90AF909F908F907F906F90089594
:100680001F920F920FB60F9211248F939F93EF93A7
:10069000FF93E0910020F091012080910220909141
:1006A0000320E817F90768F480818093C0088091DF
:1006B00000209091012001968093002090930120CA
:1006C0000AC089EB92E280930020909301208093EE
:1006D000022090930320FF91EF919F918F910F90B3
:1006E0000FBE0F901F9018951F920F920FB60F928A
:1006F00011240F900FBE0F901F901895E0E4F6E0C4
:100700008181836B8183E0EEF8E084E0848380E97B
:10071000808382E081836CE188E992E20E947A0220
:100720000895E0910620F091072023E136E22E1B88
:100730003F0B6217730750F56115710579F0482F6B
:10074000A82FB92F8D9181938A2F841B90E0861753
:100750009707C0F3E0930620F093072080910420D0
:10076000909105208B5B9342A9F4A0EEB8E08C91A8
:1007700080648C93E0910420F09105208191139680
:100780008C93E0930420F0930520089580E4E0E644
:10079000F6E0858308958093B9239093BA23089552
:1007A0001F920F920FB60F9211242F933F934F93E6
:1007B0005F936F937F938F939F93AF93BF93EF93C9
:1007C000FF93809104209091052020910620309184
:1007D00007208217930758F4FC018191A0EEB8E03E
:1007E00013968C93E0930420F093052016C08BEBB6
:1007F00093E28093042090930520809306209093A9
:100800000720E091B923F091BA23309709F00995B8
:10081000E0EEF8E080818F7B8083FF91EF91BF91C4
:10082000AF919F918F917F916F915F914F913F9188
:100830002F910F900FBE0F901F9018951F920F923F
:100840000FB60F9211240F900FBE0F901F901895A6
:100850001F920F920FB60F9211242F933F934F9335
:100860005F936F937F938F939F93AF93BF93EF9318
:10087000FF93E0E6F6E080E8858380E485830E94CC
:100880009600FF91EF91BF91AF919F918F917F91D2
:100890006F915F914F913F912F910F900FBE0F90ED
:1008A0001F9018951F920F920FB60F9211248F93DD
:1008B000EF93FF9380E4E0E6F6E0868388E0E0E0F3
:1008C000F8E08187FF91EF918F910F900FBE0F900D
:1008D0001F901895A1E21A2EAA1BBB1BFD010DC08B
:1008E000AA1FBB1FEE1FFF1FA217B307E407F507E0
:1008F00020F0A21BB30BE40BF50B661F771F881FBC
:10090000991F1A9469F760957095809590959B0151
:10091000AC01BD01CF010895A29FB001B39FC001FA
:10092000A39F700D811D1124911DB29F700D811D1B
:100930001124911D0895BB27FB015527AA27880F75
:10094000991FAA1FA41710F0A41B83955051B9F743
:10095000A05DAA3308F0A95DA193009779F7B111C2
:10096000B1931192CB010C94B504DC01FC01672F0B
:1009700071917723E1F7329704C07C916D93708376
:0E0980006291AE17BF07C8F30895F894FFCF39
:10098E00B922B922BB23BB233E3E696E69743C3C3F
:10099E0020202041444320696E697469616C697A34
:1009AE0065640A003E3E636C6F636B3C3C20202006
:1009BE00436C6F636B2033326B485A0A003E3E69BC
:1009CE006E69743C3C202020426F61726420696E17
:1009DE00697469616C697A65640A003E3E696E6984
:1009EE00743C3C2020205044433835343420696E0A
:1009FE00697469616C697A65640A00000000000020
:100A0E0000005F00000007000700147F147F14240D
:100A1E002A7F2A1223130864623649552250000594
:100A2E00030000001C2241000041221C0014083E5D
:100A3E00081408083E08080050300000080808088E
:100A4E0008006060000020100804023E5149453E37
:100A5E0000427F400042615149462141454B3118C9
:100A6E0014127F1027454545393C4A4949300171DA
:100A7E000905033649494936064949291E003636C5
:100A8E0000000056360000081422410014141414FD
:100A9E001400412214080201510906324979413EDF
:100AAE007E1111117E7F494949363E414141227FD7
:100ABE004141221C7F494949417F090909013E41B3
:100ACE0049497A7F0808087F00417F410020404154
:100ADE003F017F081422417F404040407F020C02BC
:100AEE007F7F0408107F3E4141413E7F0909090680
:100AFE003E4151215E7F0919294646494949310136
:100B0E00017F01013F4040403F1F2040201F3F40DA
:100B1E0038403F6314081463070870080761514991
:100B2E004543007F41410002040810200041417FEF
:100B3E000004020102044040404040000102040053
:100B4E0020545454787F4844443838444444203820
:100B5E004444487F3854545418087E0901020C52FC
:100B6E0052523E7F0804047800447D4000204044E9
:100B7E003D007F1028440000417F40007C04180493
:100B8E00787C0804047838444444387C14141408DF
:100B9E00081414187C7C0804040848545454200487
:100BAE003F4440203C4040207C1C2040201C3C40C8
:100BBE0030403C44281028440C5050503C4464545F
:100BCE004C44000836410000007F0000004136080A
:100BDE000010080810087846414678526573756C07
:100BEE0074205B6D565D3A2020004865737A656B04
:100BFE002120202020202020003E3E696E69743C7A
:100C0E003C20202053657269616C20696E6974699D
:100C1E00616C697A65640A003E3E696E69743C3C9B
:100C2E0020202053504920696E697469616C697A7D
:040C3E0065640A00DF
:00000001FF
