S0150000434F6465746563746F725F66772E73726563E7
S11300000C9456000C9473000C9473000C947300BD
S11300100C9473000C9473000C9473000C944504BA
S11300200C9473000C9473000C9473000C94730080
S11300300C9473000C9473000C9473000C94730070
S11300400C9473000C9473000C9473000C94730060
S11300500C9473000C9473000C947F030C94580359
S11300600C9473000C9424030C9473000C9473008C
S11300700C9473000C9473000C9473000C94730030
S11300800C9473000C9473000C94A9000C947300EA
S11300900C9473000C9473000C9473000C94730010
S11300A00C9473000C9473000C94730011241FBE01
S11300B0CFEFCDBFDFE2DEBF12E2A0E0B0E2EEE9B7
S11300C0F9E002C005900D92AE3EB107D9F726E2E1
S11300D0AEEEB2E201C01D92A135B207E1F70E9473
S11300E05B020C94CD040C94000081E0E0E0F6E0A7
S11300F08283E0E0F2E092E6918395E094A798E0B1
S1130100908727E0248320812160208380A322E03C
S113011022A32FEA20A711A612A693A787A3808162
S1130120816080836CE188E090E20E945E02089521
S1130130E0E0F2E011A280E2A0E6B6E015968C932E
S113014080818460808308958093EE229093EF22CF
S113015008951F920F920FB60F9211242F933F937D
S11301604F935F936F937F938F939F93AF93BF93BB
S1130170EF93FF9380E2E0E6F6E08683E091EE22DF
S1130180F091EF22309739F0A0E0B2E050968D91D3
S11301909C9151970995FF91EF91BF91AF919F91D8
S11301A08F917F916F915F914F913F912F910F901C
S11301B00FBE0F901F901895E0E6F6E080E2818371
S11301C080E4818380E88183E0E5F0E080818062DF
S11301D08083818185FFFDCF88ED84BF85E0809396
S11301E0400067E184E290E20E945E020E94A40261
S11301F08FB780688FBFE2EAF0E0808187608083F8
S11302000E9462030E942A010E9475000E94170442
S11302100E9404046EE18BE390E20E945E02089562
S113022082E0E0E4F6E08583089592E0E0E4F6E01D
S11302309683882329F0813039F480E1858304C0D2
S113024080E1E0E4F6E08683E0EEF8E06383828117
S1130250838108951F93CF93DF9380E191E00E94FF
S11302607A0381E0E0E4F6E086838FE097E2019789
S1130270F1F700C0000081E085838FE097E20197E9
S1130280F1F700C0000061E280E00E94150160EE19
S113029080E00E94150164E080E00E9415016BEC8F
S11302A080E00E94150160E280E00E9415016CE08C
S11302B080E00E94150160E880E00E941501D0E40E
S11302C014E56D2F80E00E94150160E880E00E9433
S11302D01501C12F60E081E00E941501C150D1F7E2
S11302E0DF5FD63471F760E289E590E20E945E0236
S11302F0DF91CF911F9108951F93CF93DF93C82F60
S1130300D42F605C80E00E9415016D2F660F6D0F85
S1130310660F605880E00E941501D0E0A097CE01DE
S1130320880F991F880F991FC80FD91FC758DF4D11
S113033010E0699181E00E9415011F5F1530C9F733
S113034060E081E00E941501DF91CF911F91089533
S11303500F931F93CF93DF93062FEC0110E0899145
S113036090EE980F903630F0412F602F80E20E947B
S11303707C0104C0412F602F0E947C011F5F1E304E
S113038071F7DF91CF911F910F9108952F923F92B2
S11303904F925F926F927F928F929F92AF92BF9291
S11303A0CF92DF92EF92FF920F931F93CF93DF933D
S11303B000D01F92CDB7DEB7562E4983222E6C0192
S11303C0E12CF12CC114D104E104F10409F442C07C
S11303D0C701B6011B820F2EFAE08F2E912CA12C9F
S11303E0B12CF02DA50194010E947204CA01B90137
S11303F02B812F5F2B83611571058105910591F781
S1130400422E222341F131E03A830F2EFAE08F2E5F
S1130410912CA12CB12CF02D3980320EC701B601DC
S1130420A50194010E947204622E732E042F152FCD
S1130430862F432D9A81491B652D805D0E947C0186
S1130440C62CD72CE02EF12EEA81EF5FEA834E16FC
S113045028F701C01B82FB81F215B9F0822D90E0D0
S11304607C01EF1AF1081E141F047CF411E0398199
S1130470230E422D411B652D80E20E947C011F5FEB
S1130480812F90E0E816F906A4F72396CDBFDEBFCE
S1130490DF91CF911F910F91FF90EF90DF90CF905C
S11304A0BF90AF909F908F907F906F905F904F9090
S11304B03F902F9008950E94DC00FFCF20910220EE
S11304C030910320E1EFF3E2E21BF30B462F50E0FF
S11304D04E175F07A4F56623C9F0A82FB92F522F32
S11304E0432F9D91E52FF42F91939E2F921B9617E6
S11304F018F45E2F4F2FF5CF6150862F90E00196B0
S1130500280F391F2093022030930320809100206C
S113051090910120815F9242B1F48091F02288236E
S113052091F08091F1228093C008809100209091F5
S1130530012001968093002090930120089580E883
S1130540E0E6F6E085830895E0E4F6E086858F7EB4
S1130550868788E0818394E09283E0ECF8E093E07E
S113056094839481977F94839EE6968390EB9783FC
S1130570828383818C60838381818F7B81836FE11C
S113058089E592E20E945E0281E08093F022089560
S11305906F927F928F929F92AF92BF92CF92DF928F
S11305A0EF92FF920F931F93CF93DF93CDB7DEB7F4
S11305B02A97CDBFDEBF8C01662E49015A01211551
S11305C0310541055105B9F0CA01B901712C0F2E4D
S11305D0FAE0CF2ED12CE12CF12CF02DA7019601BD
S11305E00E947204CA01B9017394211531054105B1
S11305F05105A1F702C0772473944AE0BE016F5FEE
S11306007F4FC4010E94A304662DC8010E945E02AC
S1130610672DCE0101960E945E0262E089E390E2BA
S11306200E945E022A96CDBFDEBFDF91CF911F915B
S11306300F91FF90EF90DF90CF90BF90AF909F907D
S11306408F907F906F9008951F920F920FB60F9224
S113065011248F939F93EF93FF93E0910020F091E7
S113066001208091022090910320E817F90768F493
S113067080818093C0088091002090910120019690
S113068080930020909301200AC081EF92E280932E
S11306900020909301208093022090930320FF91E7
S11306A0EF919F918F910F900FBE0F901F9018950F
S11306B01F920F920FB60F9211240F900FBE0F903E
S11306C01F901895CF93DF93E0E4F6E08181836B6C
S11306D08183C0EED8E084E08C8380E988836CE178
S11306E088E792E20E945E02888180648883DF91B9
S11306F0CF9108958093F1239093F22308951F924C
S11307000F920FB60F9211242F933F934F935F9341
S11307106F937F938F939F93AF93BF93EF93FF93C5
S1130720809104209091052020910620309107208B
S11307308217930758F4FC018191A0EEB8E0139658
S11307408C93E0930420F093052016C083EF93E28A
S11307508093042090930520809306209093072093
S1130760E091F123F091F223309709F00995E0EE3E
S1130770F8E080818F7B8083FF91EF91BF91AF91EF
S11307809F918F917F916F915F914F913F912F91A5
S11307900F900FBE0F901F9018959C01A8EEB3E028
S11307A00E9494042FEF3FEF40E050E00E94720457
S11307B020934D2630934E2680914D2690914E26BF
S11307C020914B2630914C262817390789F08091C7
S11307D04D2690914E2680934B2690934C268091E3
S11307E04D2690914E2627E045E061E00E94C60127
S11307F020914D2630914E2640E050E06DE084E992
S113080092E20E94C80208958DEC93E00E94A40035
S113081088E990E00E94400461E082EA92E20E944A
S1130820A8016FE181EB92E20E945E02089580913B
S1130830500082FD08C0E0E5F0E0808184608083A0
S1130840818182FFFDCFE0E0F4E0818180FDFDCF76
S1130850E0E0F4E08FE190E08287938783E0828395
S1130860818180FDFDCF87E0809300048DE0E0E48A
S1130870F0E083836EE180ED92E20E945E020895CF
S113088080934F269093502608951F920F920FB68F
S11308900F9211242F933F934F935F936F937F9302
S11308A08F939F93AF93BF93EF93FF9380E4E0E61E
S11308B0F6E08783E0914F26F0915026309709F0B7
S11308C00995FF91EF91BF91AF919F918F917F9186
S11308D06F915F914F913F912F910F900FBE0F90A9
S11308E01F901895A1E21A2EAA1BBB1BFD010DC077
S11308F0AA1FBB1FEE1FFF1FA217B307E407F507CC
S113090020F0A21BB30BE40BF50B661F771F881FA7
S1130910991F1A9469F760957095809590959B013D
S1130920AC01BD01CF010895A29FB001B39FC001E6
S1130930A39F700D811D1124911DB29F700D811D07
S11309401124911D0895BB27FB015527AA27880F61
S1130950991FAA1FA41710F0A41B83955051B9F72F
S1130960A05DAA3308F0A95DA193009779F7B111AE
S1130970B1931192CB010C94BD04DC01FC01672FEF
S113098071917723E1F7329704C07C916D93708362
S11109906291AE17BF07C8F30895F894FFCF25
S113099EF122F122F323F3233E3E696E69743C3C4B
S11309AE20202041444320696E697469616C697A20
S11309BE65640A003E3E636C6F636B3C3C202043CF
S11309CE6C6F636B20384D485A0A003E3E696E695F
S11309DE743C3C202020426F61726420696E6974FD
S11309EE69616C697A65640A003E3E696E69743C9D
S11309FE3C2020205044433835343420696E6974C9
S1130A0E69616C697A65640A0000000000000000E8
S1130A1E5F00000007000700147F147F14242A7F50
S1130A2E2A12231308646236495522500005030026
S1130A3E00001C2241000041221C0014083E081430
S1130A4E08083E080800503000000808080808008E
S1130A5E6060000020100804023E5149453E0042E9
S1130A6E7F400042615149462141454B31181412D1
S1130A7E7F1027454545393C4A49493001710905DE
S1130A8E033649494936064949291E0036360000BF
S1130A9E00563600000814224100141414141400D5
S1130AAE412214080201510906324979413E7E1150
S1130ABE11117E7F494949363E414141227F4141D0
S1130ACE221C7F494949417F090909013E4149498F
S1130ADE7A7F0808087F00417F41002040413F0192
S1130AEE7F081422417F404040407F020C027F7FEA
S1130AFE0408107F3E4141413E7F090909063E41EB
S1130B0E51215E7F09192946464949493101017F20
S1130B1E01013F4040403F1F2040201F3F403840CE
S1130B2E3F6314081463070870080761514945436D
S1130B3E007F41410002040810200041417F00045F
S1130B4E02010204404040404000010204002054CF
S1130B5E5454787F484444383844444420384444F8
S1130B6E487F3854545418087E0901020C525252CC
S1130B7E3E7F0804047800447D40002040443D003C
S1130B8E7F1028440000417F40007C041804787CC8
S1130B9E0804047838444444387C141414080814A3
S1130BAE14187C7C080404084854545420043F440C
S1130BBE40203C4040207C1C2040201C3C403040C7
S1130BCE3C44281028440C5050503C4464544C442B
S1130BDE000836410000007F000000413608001076
S1130BEE0808100878464146783E3E696E69743CA2
S1130BFE3C20202053657269616C20696E697469AA
S1130C0E616C697A65640A003E3E696E69743C3CA7
S1130C1E20202053504920696E697469616C697A89
S1130C2E65640A00526573756C74205B6D565D3A8B
S1130C3E20004163743A20202020202020206D566D
S1130C4E003E3E696E69743C3C20202053797374D7
S1130C5E656D20696E697469616C697A65640A00F0
S1130C6E3E3E696E69743C3C20202054696D657269
S1110C7E20696E697469616C697A65640A00A4
S9030000FC
