:100000000C9456000C9473000C9473000C947300C1
:100010000C9473000C9473000C9473000C9466049D
:100020000C9473000C9473000C9473000C94730084
:100030000C9473000C9473000C9473000C94730074
:100040000C9473000C9473000C9473000C94730064
:100050000C9473000C9473000C9423030C94FC0216
:100060000C9473000C94C8020C9473000C947300ED
:100070000C9473000C9473000C9473000C94730034
:100080000C9473000C9473000C94A9000C947300EE
:100090000C9473000C9473000C9473000C94730014
:1000A0000C9473000C9473000C94730011241FBE05
:1000B000CFEFCDBFDFE2DEBF13E2A0E0B0E2E2E2CD
:1000C000FFE002C005900D92AA31B107D9F726E2F0
:1000D000AAE1B3E201C01D92A238B207E1F70E9483
:1000E0005B020C948F070C94000081E0E0E0F6E0E6
:1000F0008283E0E0F2E092E6918395E094A798E0B5
:10010000908727E0248320812160208380A322E040
:1001100022A32FEA20A711A612A693A787A3808166
:10012000816080836CE187E190E20E945E02089525
:10013000E0E0F2E011A280E2A0E6B6E015968C9332
:10014000808184608083089580931A2390931B2379
:1001500008951F920F920FB60F9211242F933F9381
:100160004F935F936F937F938F939F93AF93BF93BF
:10017000EF93FF9380E2E0E6F6E08683E0911A23B6
:10018000F0911B23309739F0A0E0B2E050968D91AA
:100190009C9151970995FF91EF91BF91AF919F91DC
:1001A0008F917F916F915F914F913F912F910F9020
:1001B0000FBE0F901F901895E0E6F6E080E2818375
:1001C00080E4818380E88183E0E5F0E080818062E3
:1001D0008083818185FFFDCF88ED84BF85E080939A
:1001E000400067E183E390E20E945E020E94A40265
:1001F0008FB780688FBFE2EAF0E0808187608083FC
:100200000E9406030E942A010E9475000E94380481
:100210000E9425046EE18AE490E20E945E02089545
:1002200082E0E0E4F6E08583089592E0E0E4F6E021
:100230009683882329F0813039F480E1858304C0D6
:1002400080E1E0E4F6E08683E0EEF8E0638382811B
:10025000838108951F93CF93DF9380E191E00E9403
:100260001E0381E0E0E4F6E086838FE097E20197E9
:10027000F1F700C0000081E085838FE097E20197ED
:10028000F1F700C0000061E280E00E94150160EE1D
:1002900080E00E94150164E080E00E9415016BEC93
:1002A00080E00E94150160E280E00E9415016CE090
:1002B00080E00E94150160E880E00E941501D0E412
:1002C00014E56D2F80E00E94150160E880E00E9437
:1002D0001501C12F60E081E00E941501C150D1F7E6
:1002E000DF5FD63471F760E288E690E20E945E023A
:1002F000DF91CF911F9108951F93CF93DF93C82F64
:10030000D42F605C80E00E9415016D2F660F6D0F89
:10031000660F605880E00E941501D0E0A097CE01E2
:10032000880F991F880F991FC80FD91FC857DF4D15
:1003300010E0699181E00E9415011F5F1530C9F737
:1003400060E081E00E941501DF91CF911F91089537
:100350000F931F93CF93DF93062FEC0110E0899149
:1003600090EE980F903630F0412F602F80E20E947F
:100370007C0104C0412F602F0E947C011F5F1E3052
:1003800071F7DF91CF911F910F9108952F923F92B6
:100390004F925F926F927F928F929F92AF92BF9295
:1003A000CF92DF92EF92FF920F931F93CF93DF9341
:1003B00000D01F92CDB7DEB7562E4983222E6C0196
:1003C000E12CF12CC114D104E104F10409F442C080
:1003D000C701B6011B820F2EFAE08F2E912CA12CA3
:1003E000B12CF02DA50194010E949304CA01B9011A
:1003F0002B812F5F2B83611571058105910591F785
:10040000422E222341F131E03A830F2EFAE08F2E63
:10041000912CA12CB12CF02D3980320EC701B601E0
:10042000A50194010E949304622E732E042F152FB0
:10043000862F432D9A81491B652D805D0E947C018A
:10044000C62CD72CE02EF12EEA81EF5FEA834E1600
:1004500028F701C01B82FB81F215B9F0822D90E0D4
:100460007C01EF1AF1081E141F047CF411E039819D
:10047000230E422D411B652D80E20E947C011F5FEF
:10048000812F90E0E816F906A4F72396CDBFDEBFD2
:10049000DF91CF911F910F91FF90EF90DF90CF9060
:1004A000BF90AF909F908F907F906F905F904F9094
:1004B0003F902F9008950E94DC00FFCF20910220F2
:1004C00030910320EDE1F4E2E21BF30B462F50E004
:1004D0004E175F07A4F56623C9F0A82FB92F522F36
:1004E000432F9D91E52FF42F91939E2F921B9617EA
:1004F00018F45E2F4F2FF5CF6150862F90E00196B4
:10050000280F391F20930220309303208091002070
:10051000909101208D519342B1F480911C23882346
:1005200091F080911D238093C008809100209091CC
:10053000012001968093002090930120089580E887
:10054000E0E6F6E085830895E0E4F6E086858F7EB8
:10055000868788E0818394E09283E0ECF8E093E082
:1005600094839481977F948399E8968390ED978301
:10057000828383818C60838381818F7B81836FE120
:1005800088E692E20E945E0281E080931C23089537
:100590001F920F920FB60F9211248F939F93EF9398
:1005A000FF93E0910020F091012080910220909132
:1005B0000320E817F90768F480818093C0088091D0
:1005C00000209091012001968093002090930120BB
:1005D0000AC08DE193E280930020909301208093E4
:1005E000022090930320FF91EF919F918F910F90A4
:1005F0000FBE0F901F9018951F920F920FB60F927B
:1006000011240F900FBE0F901F901895CF93DF937A
:10061000E0E4F6E08181836B8183C0EED8E084E082
:100620008C8380E988836CE187E892E20E945E0215
:10063000888180648883DF91CF91089580931D2401
:1006400090931E2408951F920F920FB60F921124BB
:100650002F933F934F935F936F937F938F939F93CA
:10066000AF93BF93EF93FF93809104209091052067
:1006700020910620309107208217930758F4FC013F
:100680008191A0EEB8E013968C93E0930420F09350
:10069000052016C08FE194E28093042090930520FA
:1006A0008093062090930720E0911D24F0911E2452
:1006B000309709F00995E0EEF8E080818F7B808328
:1006C000FF91EF91BF91AF919F918F917F916F912A
:1006D0005F914F913F912F910F900FBE0F901F9000
:1006E00018959C01A8EEB3E00E94B5042FEF3FEFF0
:1006F00040E050E00E94930420937E2630937F26B2
:100700000895AF92BF92CF92DF92EF92FF920F9334
:100710001F93CF93DF93CDB7DEB7C054D109CDBFC0
:10072000DEBF80917D268F5F8C3318F480937D2609
:1007300007C010927D26ECE7F6E280818F5F808310
:1007400080917C268C3338F010927C26EBE7F6E221
:1007500080818F5F808380917B26883138F0109272
:100760007B26EAE7F6E280818F5F808380917E2698
:1007700090917F269F938F930F2EFDE7AF2EF6E289
:10078000BF2EF02DF50180811F928F930F2EFCE775
:10079000CF2EF6E2DF2EF02DF60180811F928F938F
:1007A0000F2EFBE7EF2EF6E2FF2EF02DF7018081F2
:1007B0001F928F9383EA92E29F938F938E010F5F34
:1007C0001F4F1F930F930E94C404682FC8010E94FB
:1007D0005E028EE0E8E0F0E2D80101900D928A9589
:1007E000E1F7F50180811F928F93F60180811F92BE
:1007F0008F93F70180811F928F938FEB92E29F93EB
:100800008F931F930F930E94C40460E0C8010E945D
:10081000A80180917E2690917F2625E046E061E048
:100820000E94C6010E949800CDBFDEBFC05CDF4FB2
:10083000CDBFDEBFDF91CF911F910F91FF90EF9061
:10084000DF90CF90BF90AF90089581E793E00E9432
:10085000A40081E893E00E94610461E08EEC92E2E2
:100860000E94A8016FE18DED92E20E945E02089560
:100870008091500082FD08C0E0E5F0E08081846056
:100880008083818182FFFDCFE0E0F4E0818180FD03
:10089000FDCFE0E0F4E08FE190E08287938783E092
:1008A0008283818180FDFDCF87E0809300048DE00D
:1008B000E0E4F0E083836EE18CEF92E20E945E025E
:1008C0000895809380269093812608951F920F9219
:1008D0000FB60F9211242F933F934F935F936F9313
:1008E0007F938F939F93AF93BF93EF93FF9380E496
:1008F000E0E6F6E08783E0918026F091812630974C
:1009000009F00995FF91EF91BF91AF919F918F9160
:100910007F916F915F914F913F912F910F900FBEFB
:100920000F901F901895A1E21A2EAA1BBB1BFD0168
:100930000DC0AA1FBB1FEE1FFF1FA217B307E407BE
:10094000F50720F0A21BB30BE40BF50B661F771F16
:10095000881F991F1A9469F76095709580959095F6
:100960009B01AC01BD01CF010895A29FB001B39FCF
:10097000C001A39F700D811D1124911DB29F700DA8
:10098000811D1124911D0895AEE0B0E0EAECF4E081
:100990000C946C070D891E8986E08C8309831A8369
:1009A0008FEF9FE78D839E83AE01475E5F4F6F8918
:1009B000788DCE0101960E94E604EF81F885E00F64
:1009C000F11F10822E96E4E00C948507ACE0B0E0B5
:1009D000ECEEF4E00C945E077C016B018A01FC01F3
:1009E00016821782838181FFBDC1CE0101964C0121
:1009F000F7019381F60193FD859193FF81916F013A
:100A0000882309F4ABC1853239F493FD859193FFB6
:100A100081916F01853229F4B70190E00E94CE06E2
:100A2000E7CF512C312C20E02032A0F48B3269F03A
:100A300030F4803259F0833269F420612CC08D3259
:100A400039F0803339F4216026C02260246023C04D
:100A5000286021C027FD27C030ED380F3A3078F4E8
:100A600026FF06C0FAE05F9E300D1124532E13C0FE
:100A70008AE0389E300D1124332E20620CC08E3255
:100A800021F426FD6BC1206406C08C3611F4206869
:100A900002C0883641F4F60193FD859193FF819160
:100AA0006F018111C1CF982F9F7D9554933028F409
:100AB0000C5F1F4FFFE3F9830DC0833631F083379E
:100AC00071F0833509F05BC022C0F8018081898311
:100AD0000E5F1F4F44244394512C540115C038011C
:100AE000F2E06F0E711CF801A080B18026FF03C0F8
:100AF000652D70E002C06FEF7FEFC5012C870E946B
:100B0000C3062C0183012C852F77222E17C03801B4
:100B1000F2E06F0E711CF801A080B18026FF03C0C7
:100B2000652D70E002C06FEF7FEFC5012C870E943A
:100B3000B8062C012C852068222E830123FC1BC0C3
:100B4000832D90E048165906B0F4B70180E290E09A
:100B50000E94CE063A94F4CFF50127FC859127FE3A
:100B600081915F01B70190E00E94CE0631103A9466
:100B7000F1E04F1A51084114510471F7E5C0843671
:100B800011F0893639F5F80127FF07C060817181BE
:100B9000828193810C5F1F4F08C06081718188271B
:100BA00077FD8095982F0E5F1F4F2F76B22E97FFFF
:100BB00009C090958095709561957F4F8F4F9F4F9D
:100BC0002068B22E2AE030E0A4010E940007A82E7F
:100BD000A81844C0853729F42F7EB22E2AE030E0D1
:100BE00025C0F22FF97FBF2E8F36C1F018F488355B
:100BF00079F0B4C0803719F0883721F0AFC02F2FBB
:100C00002061B22EB4FE0DC08B2D8460B82E09C0B9
:100C100024FF0AC09F2F9660B92E06C028E030E05E
:100C200005C020E130E002C020E132E0F801B7FE6B
:100C300007C060817181828193810C5F1F4F06C064
:100C40006081718180E090E00E5F1F4FA4010E94DF
:100C50000007A82EA818FB2DFF77BF2EB6FE0BC0ED
:100C60002B2D2E7FA51450F4B4FE0AC0B2FC08C090
:100C70002B2D2E7E05C07A2C2B2D03C07A2C01C083
:100C8000752C24FF0DC0FE01EA0DF11D808180331B
:100C900011F4297E09C022FF06C07394739404C026
:100CA000822F867809F0739423FD13C020FF06C0BD
:100CB0005A2C731418F4530C5718732C731468F4CB
:100CC000B70180E290E02C870E94CE0673942C85B9
:100CD000F5CF731410F4371801C0312C24FF12C063
:100CE000B70180E390E02C870E94CE062C8522FF7E
:100CF00017C021FF03C088E590E002C088E790E0BC
:100D0000B7010CC0822F867859F021FD02C080E225
:100D100001C08BE227FD8DE2B70190E00E94CE0674
:100D2000A51438F4B70180E390E00E94CE065A94EF
:100D3000F7CFAA94F401EA0DF11D8081B70190E08C
:100D40000E94CE06A110F5CF332009F451CEB70191
:100D500080E290E00E94CE063A94F6CFF7018681B9
:100D6000978102C08FEF9FEF2C96E2E10C947707FA
:100D7000FC010590615070400110D8F78095909566
:100D80008E0F9F1F0895FC0161507040019001106B
:100D9000D8F7809590958E0F9F1F08950F931F93FE
:100DA000CF93DF93182F092FEB018B8181FD03C0B7
:100DB0008FEF9FEF20C082FF10C04E815F812C819A
:100DC0003D81421753077CF4E881F9819F012F5F31
:100DD0003F4F28833983108306C0E885F985812F2A
:100DE0000995892B29F72E813F812F5F3F4F2E8355
:100DF0003F83812F902FDF91CF911F910F91089505
:100E0000FA01AA27283051F1203181F1E8946F933B
:100E10006E7F6E5F7F4F8F4F9F4FAF4FB1E03ED0E1
:100E2000B4E03CD0670F781F891F9A1FA11D680F7F
:100E3000791F8A1F911DA11D6A0F711D811D911DB2
:100E4000A11D20D009F468943F912AE0269F112427
:100E50003019305D3193DEF6CF010895462F47708B
:100E6000405D4193B3E00FD0C9F7F6CF462F4F70E6
:100E7000405D4A3318F0495D31FD4052419302D044
:100E8000A9F7EACFB4E0A6959795879577956795EA
:100E9000BA95C9F700976105710508959B01AC01EA
:100EA0000A2E06945795479537952795BA95C9F711
:100EB000620F731F841F951FA01D08952F923F92EC
:100EC0004F925F926F927F928F929F92AF92BF925A
:100ED000CF92DF92EF92FF920F931F93CF93DF9306
:100EE000CDB7DEB7CA1BDB0BCDBFDEBF09942A88A6
:100EF000398848885F846E847D848C849B84AA842E
:100F0000B984C884DF80EE80FD800C811B81AA81BA
:100F1000B981CE0FD11DCDBFDEBFED010895F8948C
:020F2000FFCF01
:100F22001D231D231F241F242020202020202020B9
:100F3200202020202020003E3E696E69743C3C2027
:100F4200202041444320696E697469616C697A6545
:100F5200640A003E3E636C6F636B3C3C2020436C32
:100F62006F636B20384D485A0A003E3E696E6974C1
:100F72003C3C202020426F61726420696E69746972
:100F8200616C697A65640A003E3E696E69743C3C34
:100F92002020205044433835343420696E69746906
:100FA200616C697A65640A00000000000000005F5D
:100FB20000000007000700147F147F14242A7F2AF0
:100FC20012231308646236495522500005030000BB
:100FD200001C2241000041221C0014083E08140893
:100FE200083E0808005030000008080808080060A1
:100FF20060000020100804023E5149453E00427F35
:10100200400042615149462141454B311814127F3B
:101012001027454545393C4A4949300171090503C4
:101022003649494936064949291E0036360000002C
:1010320056360000081422410014141414140041FE
:101042002214080201510906324979413E7E1111EA
:10105200117E7F494949363E414141227F41412229
:101062001C7F494949417F090909013E4149497AA1
:101072007F0808087F00417F41002040413F017FF7
:10108200081422417F404040407F020C027F7F04CF
:1010920008107F3E4141413E7F090909063E415108
:1010A200215E7F09192946464949493101017F01DB
:1010B200013F4040403F1F2040201F3F4038403FFB
:1010C2006314081463070870080761514945430017
:1010D2007F41410002040810200041417F000402C8
:1010E20001020440404040400001020400205454E8
:1010F20054787F484444383844444420384444486F
:101102007F3854545418087E0901020C5252523E40
:101112007F0804047800447D40002040443D007F65
:101122001028440000417F40007C041804787C08A9
:1011320004047838444444387C1414140808141401
:10114200187C7C080404084854545420043F44404A
:10115200203C4040207C1C2040201C3C4030403C35
:1011620044281028440C5050503C4464544C4400D1
:101172000836410000007F000000413608001008D8
:1011820008100878464146783E3E696E69743C3CD8
:1011920020202053657269616C20696E69746961EF
:1011A2006C697A65640A003E3E696E69743C3C2053
:1011B200202053504920696E697469616C697A65AF
:1011C200640A005B252E32753A252E32753A252E99
:1011D20032755D20252E34755B6D565D200A002523
:1011E2002E32753A252E32753A252E32750041631C
:1011F200743A20202020202020206D56003E3E6997
:101202006E69743C3C20202053797374656D2069AB
:101212006E697469616C697A65640A003E3E696E42
:1012220069743C3C20202054696D657220696E69A6
:0A1232007469616C697A65640A0052
:00000001FF
