S0150000434F6465746563746F725F66772E73726563E7
S113000055C000006EC000006CC000006AC0000053
S113001068C0000066C0000064C0000062C0000048
S113002060C000005EC000005CC000005AC0000058
S113003058C0000056C000009FC30000B1C30000B8
S1130040D8C300004EC000004CC000004AC00000ED
S113005048C0000046C0000025C30000C5C200001F
S113006040C000008DC200003CC000003AC0000047
S113007038C0000036C0000034C0000032C00000A8
S113008030C000002EC000005DC000002AC0000087
S113009028C0000026C0000024C0000022C00000C8
S11300A020C000001EC000001CC0000011241FBEA0
S11300B0CFEFCDBFDFE2DEBF10E2A0E0B0E2E4EAC2
S11300C0F8E002C005900D92A43BB107D9F724E2F1
S11300D0A4EBB0E201C01D92A631B207E1F727D12B
S11300E0DFC38ECF81E0E0E0F6E08283E0E0F2E07F
S11300F016821282138293E0948314A692E0918371
S113010080A321812F7E218392A39AEA90A711A62E
S113011012A698E093A787A38081816080836CE115
S113012088E090E20FC10895E0E0F2E081E080A36E
S113013011A280818460808308958093B420909379
S1130140B52008951F920F920FB60F9211242F938A
S11301503F934F935F936F937F938F939F93AF934B
S1130160BF93EF93FF9380E8E0E6F6E08683E091A7
S1130170B420F091B520309709F00995FF91EF91E3
S1130180BF91AF919F918F917F916F915F914F91AB
S11301903F912F910F900FBE0F901F901895E0E69E
S11301A0F6E080E2818380E4818380E8818388EDC6
S11301B084BF85E08093400067E184E290E2C2D08E
S11301C007D11CD232D08EDFBBD28FB780688FBFED
S11301D0E2EAF0E08081876080836EE18BE390E265
S11301E0B1C0089582E0E0E4F6E085830895CF93FA
S11301F0DF931F92CDB7DEB7698392E0E0E4F6E0C7
S11302009683882329F0813039F480E1858304C002
S113021080E1E0E4F6E0868361E070E0CE010196DF
S113022002D20F90DF91CF91089582EF90E035D202
S113023081E0E0E4F6E086838FE295E70197F1F749
S113024000C0000081E085839DE09A95F1F70000ED
S113025061E280E0CCDF60EE80E0C9DF64E080E052
S1130260C6DF6BEC80E0C3DF60E280E0C0DF6CE0FF
S113027080E0BDDF60E289E590E264C008950F93F9
S1130280E0E0F2E0208931898091B7209091B82094
S1130290A091B920B091BA20BC01CD01620F731FA7
S11302A0811D911D6093B7207093B8208093B9206D
S11302B09093BA202091B6202F5F2093B62025304A
S11302C0A1F525E030E040E050E0AFD2A8EEB3E085
S11302D0CED22FEF3FEF40E050E0A7D22093B720DB
S11302E03093B8204093B9205093BA2060E08AE359
S11302F090E291D02091B7203091B8204091B9205C
S11303005091BA2000E160E08AE390E2F8D080E204
S1130310E0E6F6E087831092B7201092B82010929E
S1130320B9201092BA201092B6200F910895E0E0FF
S1130330F6E082E08183868332DF8FE391E0FDDEA5
S113034008D2FFCF2091022030910320ECEBF1E2A0
S1130350E21BF30B462F50E04E175F07A4F566230C
S1130360C9F0A82FB92F522F432F9D91E52FF42FB9
S113037091939E2F921B961718F45E2F4F2FF5CF53
S11303806150862F90E00196280F391F2093022098
S11303903093032080910020909101208C5B904247
S11303A0B1F48091BB20882391F08091BC2080938C
S11303B0C008809100209091012001968093002034
S11303C090930120089580E8E0E6F6E0858308959F
S11303D0E0E4F6E086858F7E868788E0818394E07A
S11303E09283E0ECF8E093E094839481977F948384
S11303F09EE6968390EB9783828383818C608383CC
S113040081818F7B81836FE189E790E29BDF81E0CB
S11304108093BB2008953F924F925F926F927F9298
S11304208F929F92AF92BF92CF92DF92EF92FF9200
S11304300F931F93CF93DF93CDB7DEB72A97CDBF2A
S1130440DEBF8C01862E69017A0121153105410533
S1130450510529F480E389839924939430C0CA0117
S1130460B901912C0F2EFAE04F2E512C612C712CD6
S1130470F02D9394A3019201D8D1CA01B901211599
S1130480310541055105A9F79920C9F0392C0F2EE2
S1130490FAE04F2E512C612C712CF02D5E01A30C2F
S11304A0B11CC701B601A3019201BFD1605DF50182
S11304B06083C22ED32EE42EF52E3A9479F7682D5C
S11304C0C80140DF692DCE0101963CDF62E089E37B
S11304D090E238DF2A96CDBFDEBFDF91CF911F9126
S11304E00F91FF90EF90DF90CF90BF90AF909F90CF
S11304F08F907F906F905F904F903F900895AF9250
S1130500BF92CF92DF92EF92FF920F931F93CF93FC
S1130510DF93CDB7DEB7CDB6DEB6EDB7FEB7E01BE1
S1130520F109EDBFFEBF31967F01DF01002399F091
S113053071E0A02EB12CF501E71BF109EA0FFB1FB6
S1130540122F1170105D1083569547953795279596
S11305507F5F071780F7F6DE602FC701F3DE62E0E6
S113056089E390E2EFDECDBEDEBEDF91CF911F9135
S11305700F91FF90EF90DF90CF90BF90AF900895D0
S11305801F920F920FB60F9211248F939F93EF93A4
S1130590FF93E0910020F09101208091022090913E
S11305A00320E817F90768F480818093C0088091DC
S11305B000209091012001968093002090930120C7
S11305C00AC08CEB90E280930020909301208093EA
S11305D0022090930320FF91EF919F918F910F90B0
S11305E00FBE0F901F9018951F920F920FB60F9287
S11305F011240F900FBE0F901F901895E0E4F6E0C1
S11306008181836B8183E0EEF8E084E0848380E180
S1130610808380818068808382E081836CE188E9C3
S113062090E290CE0895E0910620F091072026E113
S113063034E22E1B3F0B6217730750F561157105E9
S113064079F0482FA82FB92F8D9181938A2F841B7D
S113065090E086179707C0F3E0930620F0930720F5
S113066080910420909105208E5B9142A9F4A0EE24
S1130670B8E08C9180648C93E0910420F091052083
S1130680819113968C93E0930420F09305200895B0
S113069080E4E0E6F6E0858308958093BC2190939E
S11306A0BD2108951F920F920FB60F9211242F931C
S11306B03F934F935F936F937F938F939F93AF93E6
S11306C0BF93EF93FF938091042090910520209194
S11306D00620309107208217930758F4FC0181917A
S11306E0A0EEB8E013968C93E0930420F0930520D9
S11306F016C08EEB91E280930420909305208093A2
S1130700062090930720E091BC21F091BD21309701
S113071009F00995E0EEF8E080818F7B8083FF91FA
S1130720EF91BF91AF919F918F917F916F915F9165
S11307304F913F912F910F900FBE0F901F901895DE
S1130740E0E0F8E084E080838FE3878380E28187C0
S11307500895E0E0F8E080E49CE980AF91AF80EA9E
S113076090EA82AF93AF80E491EA84AF95AF80E2E0
S1130770808788E0818708951F920F920FB60F92A9
S113078011248F93EF93FF9382E0E0E0F6E08583FA
S1130790FF91EF918F910F900FBE0F901F901895BE
S11307A01F920F920FB60F9211242F933F934F93E2
S11307B05F936F937F938F939F93AF93BF93EF93C5
S11307C0FF93E0E6F6E080E8858380E48583ACDC93
S11307D0FF91EF91BF91AF919F918F917F916F9115
S11307E05F914F913F912F910F900FBE0F901F90EB
S11307F018951F920F920FB60F9211248F93EF93B7
S1130800FF9380E4E0E6F6E0868382E0E0E0F6E051
S1130810868388E0E0E0F8E08187FF91EF918F9193
S11308200F900FBE0F901F901895A1E21A2EAA1BCD
S1130830BB1BFD010DC0AA1FBB1FEE1FFF1FA2178C
S1130840B307E407F50720F0A21BB30BE40BF50B89
S1130850661F771F881F991F1A9469F76095709512
S1130860809590959B01AC01BD01CF01089509D0FD
S1130870A59F900DB49F900DA49F800D911D1124F0
S11308800895A29FB001B39FC001A39F700D811D65
S11308901124911DB29F700D811D1124911D089585
S10708A0F894FFCFF6
S11308A4BC20BC20BE21BE213E3E696E69743C3C22
S11308B420202041444320696E697469616C697A1B
S11308C465640A003E3E636C6F636B3C3C202043CA
S11308D46C6F636B20384D485A0A003E3E696E695A
S11308E4743C3C202020426F61726420696E6974F8
S11308F469616C697A65640A003E3E696E69743C98
S11309043C2020205044433835343420696E6974C3
S113091469616C697A65640A003E3E696E69743C77
S11309243C20202053657269616C20696E69746986
S1130934616C697A65640A003E3E696E69743C3C84
S113094420202053504920696E697469616C697A66
S107095465640A00C8
S9030000FC
